:100000000C9434000C9451000C9451000C94510049
:100010000C9451000C9451000C9451000C9451001C
:100020000C9451000C9451000C9451000C941E013E
:100030000C9451000C9451000C9451000C945100FC
:100040000C948E000C9451000C9451000C945100AF
:100050000C9451000C9451000C9451000C945100DC
:100060000C9451000C94510011241FBECFEFD4E02A
:10007000DEBFCDBF11E0A0E0B1E0E8EEF3E002C0EA
:1000800005900D92A036B107D9F721E0A0E6B1E0C6
:1000900001C01D92A437B207E1F70E94AC010C9495
:1000A000F2010C9400005A980000000000000000CB
:1000B0005A9A089521E030E0A90102C0440F551F6B
:1000C0008A95E2F7CA0120916101662321F0822B13
:1000D00080936101089580958223FACFCF93DF93B7
:1000E000A2E6B1E09C012C5F3F4FEC01E991CE010B
:1000F000F0E0E250FF4F40814D93C217D307A9F7BC
:10010000DF91CF9108958AB18C618AB984E085BD71
:10011000EEE6F0E080818160808308951F920F9267
:100120000FB60F9211240F931F932F933F934F936A
:100130005F936F937F938F939F93AF93BF93CF936F
:10014000DF93EF93FF938091600101E010E098014D
:1001500002C0220F331F8A95E2F700916101022B42
:100160000095D0E0C0E010E0C8010C2E01C0880F5F
:100170000A94EAF787FF56C08BB188608BB90E945A
:1001800053002196C430D10579F7C8010C2E01C067
:10019000880F0A94EAF787FF48C08BB188608BB953
:1001A0000E9453002196C830D10579F7D0E0C0E015
:1001B000E09160010E2E000CFF0BEE59FE4F808186
:1001C0000C2E01C0880F0A94EAF787FF31C08BB16B
:1001D00088608BB90E9453002196C830D10541F741
:1001E0005C9A00000000000000005C9880916001B3
:1001F0008F5F843004F580936001FF91EF91DF9170
:10020000CF91BF91AF919F918F917F916F915F91AE
:100210004F913F912F911F910F910F900FBE0F9013
:100220001F9018958BB1877FA9CF8BB1877FB7CFF0
:100230008BB1877FCECF10926001DFCF8F938FB7C6
:100240008F939F9380917201909173010196909387
:100250007301809372019F918F918FBF8F91189539
:10026000E1E8F0E088E08083109289008FE08093DD
:100270008800808185608083EFE6F0E08081826085
:100280008083089580917201909173012091700193
:1002900030917101AC01421B530B9A01243F314054
:1002A00090F040916E0150916F0190937101809395
:1002B000700121E030E0452B11F030E020E0309378
:1002C0006F0120936E0120916C0130916D01AC01A2
:1002D000421B530B9A012D34314090F090936D01E5
:1002E00080936C0121E030E040916A0150916B01F4
:1002F000452B11F030E020E030936B0120936A0130
:100300002091680130916901AC01421B530B4436C6
:10031000510590F0909369018093680181E090E02D
:100320002091660130916701232B11F090E080E06D
:10033000909367018093660160916E0186E00E9450
:100340005A0060916A0184E00E945A00609166013F
:1003500085E00E945A000895CDB7DEB7A2970FB688
:10036000F894DEBF0FBECDBF8EE1E0E0F1E0DE012C
:10037000119601900D928A95E1F783E084B90E946D
:1003800083000E943001789410E090E080E005E066
:100390001003F001112421E030E02C0F3D1FE20F8B
:1003A000F31F20812F8F218128A3228129A323815C
:1003B0002AA3E0907201F09073019701281B390B7A
:1003C000203D374058F01F5F173050F4CE014F9654
:1003D0000E946E000E944201C701DACF7C01F6CF75
:0803E00010E0F4CFF894FFCF08
:1003E8004641554C004845415400434F4C44003168
:1003F800323334002048492000204C4F2000FF7938
:10040800DD9D93ADE3FDC6F09CB97FBF7FADC0F91C
:10041800A4B0999282F88090000000B7003C308820
:1004280083C6A1868EC389CFE18AC78DABC08C985D
:10043800AF9287C1E1FFB691B7A79BB3FEF79F00C4
:00000001FF
